export const tx = {
    in_active_chain: true,
    txid: "a54f313f68172ac996c37d36baa885486dfea900cce4debca3fcdea7ea45f64f",
    hash: "9be70d7bbfa469fe5dc53375679ff71a347829b77492999aaab31fda98d851e9",
    version: 2,
    size: 300,
    vsize: 219,
    weight: 873,
    locktime: 0,
    vin: [
      {
        txid: "14d325a2a29be32ca2560c9d134aea34ba8bd175d82db789479ad02a432bd688",
        vout: 2,
        scriptSig: {
          asm: "",
          hex: "",
        },
        txinwitness: [
          "30440220704c48e3c46f6d1b663ba202f7395af2b647266e126be5b0d98855cf62a35b9802206ff5c6ecd822d8a782a895fab162fcfa392af4a0c915045afaa84aa30f8e9b8c01",
          "03f64b159b714d55ff027265c25a1a76daba8fec4cf2fa4daa424aebd4c36fb600",
        ],
        sequence: 4294967295,
      },
    ],
    vout: [
      {
        value: 0,
        n: 0,
        scriptPubKey: {
          asm: "OP_RETURN 0c00000003016101000000000000000000006728ee0d1d8901640100000000000000000000000000000001017005164d6b19dec3167ab350e29871b625e827de2aceba",
          desc: "raw(6a430c00000003016101000000000000000000006728ee0d1d8901640100000000000000000000000000000001017005164d6b19dec3167ab350e29871b625e827de2aceba)#cxxgm8hp",
          hex: "6a430c00000003016101000000000000000000006728ee0d1d8901640100000000000000000000000000000001017005164d6b19dec3167ab350e29871b625e827de2aceba",
          type: "nulldata",
        },
      },
      {
        value: 0.00013,
        n: 1,
        scriptPubKey: {
          asm: "0 f6875e1b5f7f1c9b65d9e2831d34701004d3b444",
          desc: "addr(bc1q76r4ux6l0uwfkeweu2p36drszqzd8dzyl74g5t)#pjg6r820",
          hex: "0014f6875e1b5f7f1c9b65d9e2831d34701004d3b444",
          address: "bc1q76r4ux6l0uwfkeweu2p36drszqzd8dzyl74g5t",
          type: "witness_v0_keyhash",
        },
      },
      {
        value: 0.00124503,
        n: 2,
        scriptPubKey: {
          asm: "0 5f1dcae5b87013aca2248ad907b5e700bc5c766d",
          desc: "addr(bc1qtuwu4edcwqf6eg3y3tvs0d08qz79cand3ecc2h)#e3498m0s",
          hex: "00145f1dcae5b87013aca2248ad907b5e700bc5c766d",
          address: "bc1qtuwu4edcwqf6eg3y3tvs0d08qz79cand3ecc2h",
          type: "witness_v0_keyhash",
        },
      },
    ],
    hex: "0200000000010188d62b432ad09a4789b72dd875d18bba34ea4a139d0c56a22ce39ba2a225d3140200000000ffffffff030000000000000000456a430c00000003016101000000000000000000006728ee0d1d8901640100000000000000000000000000000001017005164d6b19dec3167ab350e29871b625e827de2acebac832000000000000160014f6875e1b5f7f1c9b65d9e2831d34701004d3b44457e60100000000001600145f1dcae5b87013aca2248ad907b5e700bc5c766d024730440220704c48e3c46f6d1b663ba202f7395af2b647266e126be5b0d98855cf62a35b9802206ff5c6ecd822d8a782a895fab162fcfa392af4a0c915045afaa84aa30f8e9b8c012103f64b159b714d55ff027265c25a1a76daba8fec4cf2fa4daa424aebd4c36fb60000000000",
    blockhash: "000000000000000000015b33bd39d4e88a9a0e04a50f3a022577231104a7264c",
    confirmations: 744,
    time: 1753370524,
    blocktime: 1753370524,
  };
  